:020000020000FC
:100000000C9446000C9402000C9404000C9406001E
:100010000C9408000C940A000C940C000C940E0034
:100020000C9410000C9412000C9414000C94160004
:100030000C9418000C941A000C941C000C9458009A
:100040000C9420000C9422000C9424000C942600A4
:100050000C9428000C942A000C942C000C942E0074
:100060000C9430000C9432000C9434000C94360044
:100070000C9438000C943A000C943C000C943E0014
:100080000C9440000C9442000C9444000FE70DBF08
:1000900001E00EBF81D47894C9D4F8CF002702BF05
:1000A00003E003BF0CE701BF07B7026007BF089575
:1000B0000F920FB60F920F931F932F93EF93FF930F
:1000C00029D0B8D1D9D1BED09ED36ED3FF91EF91B4
:1000D0002F911F910F910F900FBE0F9018950FEF5A
:1000E000009364000093650000E002B9089540E0C9
:1000F0004FBF4EE14093650044E1409383014FEFD1
:100100004093840140E040938101409382014093F9
:10011000800108950FB60F920F931F932F933F9373
:100120004F935F9311B1409184011F3F19F0141751
:10013000D9F015C044E1409383014FEF409384010F
:10014000209165002F3038F031F02095220F209556
:10015000209365001FC04EE1409365001BC044E141
:100160004093830110938401309183013A95309339
:1001700083013F3F14F029F00DC04FEF40938301FE
:1001800009C04FEF409380011093810120916500D9
:10019000209382015F914F913F912F911F910F9179
:1001A0000F900FBE08950091800100300895FBDF8D
:1001B00009F4FDCF009181012091820141E050E0DE
:1001C000402319F0440F5395FBCF41E018E0052F71
:1001D000422319F0010F440FFBCF0FB6F89440E013
:1001E000409380010FBE08950FEF0ABB04BB01BB13
:1001F00000E00BBB05BB02BB08954BD070E07093D1
:10020000850170E87093860170938701002710E0E4
:100210001093A0010093A3010093A1010093A201F8
:100220001093A4010093A5010093A6010093A701D8
:10023000C8E9D1E030E040E03830A1F1499333958E
:10024000FBCF089500E00BBB02BBE8E8F1E00091B2
:10025000850110E0E00FF11F208125BB08304CF430
:100260001091860117FB110F10F91BBB109386012B
:1002700008C01091870117FB110F10F912BB1093E2
:100280008701039500310CF401C000E00093850163
:100290000895C8E8D1E030E040E0303119F04993EA
:1002A0003395FBCF0895213019F0223049F022C058
:1002B000A8E8B1E060E07CE0A70FB61F80E008C0CE
:1002C000A8E8B1E060E078E0A70FB61F80E000C0CA
:1002D000843081F0302F3F70E0EAF5E0E30FF61F45
:1002E00044914D931295029550EF51230F70052BB9
:1002F0008395EECF08950134FCF4202F3FEF40E0CA
:1003000042171CF428503395FACF202F277041E074
:10031000203029F02A9540FB469547F9F9CFE8E8C7
:10032000F1E020E0E30FF21F5081112311F0542B74
:1003300002C0409554235083089564E06317E8F0A9
:100340004038D8F4213019F0223041F016C0A8E826
:10035000B1E060E07CE0A70FB61F06C0A8E8B1E0FE
:1003600060E078E0A70FB61F3150A30FB61FE0E2A0
:10037000F5E0E40FF61F44914C93089521E048E422
:1003800031E0DBDF47E432E0D8DF49E433E0D5DFBA
:1003900048E434E0D2DF089521E049E531E0CDDFE3
:1003A00041E432E0CADF4CE433E0C7DF40E534E04B
:1003B000C4DF089510EB21E076DF21E04CE431E06A
:1003C000BCDF4CE432E0B9DF41E433E0B6DF08954E
:1003D0001091B6010091B70122E065DFCFDF0895EB
:1003E0000091B801112740D5022F132F22E05BDFC7
:1003F000D3DF0895220F2093A3011FEF0FB6F894C7
:100400001093A0010AEF10E00093A2011093A10144
:100410000FBE08951FEF6FDF0FB6F8940093A7018A
:100420001093A4010AEF10E00093A6011093A50118
:100430000FBE08950F931F930FB70F930091A40160
:100440000023A9F00091A6011091A50101501040D0
:100450000093A6011093A501012B49F40091A70177
:1004600010E049DF00270093A7011093A4010F912A
:100470000FBF1F910F9108950F931F932F936F93A9
:100480007F938F93CF93DF93AF93BF930FB70F9368
:100490000091A0010023B9F10091A2011091A101E6
:1004A000015010400093A2011093A101012B59F5B6
:1004B0000091A3010A950093A301002309F10AEF1B
:1004C00010E00093A2011093A101A8E8B1E060E060
:1004D00078E0A70FB61FC8E9D1E068E00091A3015A
:1004E000017031F4603079F029912D936A95FACF3B
:1004F000603049F02C9180E08D9329936A95F8CF74
:1005000010E01093A0010F910FBFBF91AF91DF9149
:10051000CF918F917F916F912F911F910F9108959E
:1005200000000000000000000000000000000000CB
:1005300000000000000000000000000000000000BB
:100540000000420000000002790F0000008000005F
:100550007F06BB8FC6CDFD07FFC7000000880000E7
:10056000BFF7FF797FF9F1FDF6063E007800007FC6
:10057000F30000CD007E000000C60079000F0008E7
:100580004000FCB8BE0000CFF40400007000B4BC12
:100590000000B000F83C000000CE000006000100A2
:1005A0007F06BB8FC6CDFD07FFC7F7FC79BEF9F10B
:1005B000BD9A10E000E001D00895202F212B59F0C2
:1005C00020E42FBD2AE02EBD47E031EA20E209D029
:1005D0003BBD2ABD05C020E02FBD28E02EBDC5983B
:1005E000089568E133242224221F331F441F221C54
:1005F000331C2016310610F0201A310A6A95A1F733
:10060000221F331F441F20953095409508950FEF0A
:100610000093B101E8E8F6E0E093B201F093B30192
:10062000E093AB01F093AC0101D00895E091AB01F0
:10063000F091AC01059115910093AF011093B001B9
:10064000012B09F009C005911591012B81F0009350
:10065000AD011093AE0106C0059115910093AD0157
:100660001093AE01E093AB01F093AC0101C0CFDF7A
:10067000089500E010E00093B1010093AF010093F2
:10068000B00110E09ADF0895000032000B029600DE
:1006900000003200EE01960000003200D20164003A
:1006A00000000F00EE01640000000F00D2016400A2
:1006B00000000F00B8016400000032009F019600A6
:1006C0000000320088019600000032007201C8006C
:1006D0008801C80000003200B80196000000320016
:1006E0009F019600000032008801640000000F00A6
:1006F0009F01640000000F008801640000000F00EB
:1007000072016400000032005D01960000003200BA
:100710004A019600000032003701C8004A01C800B3
:1007200000003200880196000000320026016400BB
:1007300000000F002601640000000F001501C80032
:100740002601C80000003200880196000000320037
:100750002601640000000F002601640000000F0065
:100760001501C8002601C800F700640006016400F6
:100770001501640026016400370164004A01640029
:100780005D01640072016400880164009F016400DF
:10079000B8016400EE01640000000F00B801C80059
:1007A0008801C800000000000F931F93EF93FF9390
:1007B0000FB70F930091B101002391F00091AD01AB
:1007C0001091AE01015010400093AD011093AE01A5
:1007D000012B31F42BDF0091AF011091B001EDDE60
:1007E0000F910FBFFF91EF911F910F910895E5DEDB
:1007F0000FB6F8942093AA013093A9011FEF10932C
:10080000A8010FBE08950F931F930FB70F93009188
:10081000A801002391F00091AA011091A9010150B3
:1008200010400093AA011093A901012B31F400E0BC
:1008300010E0C3DE00271093A4010F910FBF1F919A
:100840000F91089543E54DB9B89AB99ABA9ABB98F1
:10085000C09A48E94FB952D040E04FB94FD0C09844
:1008600000000000000008952F933F934F935F9383
:100870006F93402F410FD0F04138C0F4312F36959F
:100880000023A1F019D0212F217039F4013049F053
:100890006993599302501E5F08C059930A951395A6
:1008A00004C069930A95139500C0E8CF6F915F91DA
:1008B0004F913F912F9108952F934F93C09A00002D
:1008C00000000000000000003F73306821E0330F9B
:1008D000221F2FB913D03FB911D040E04FB90ED02D
:1008E000622F4FB90BD0522F369500000000000048
:1008F00000000000C0984F912F910895779BFECF84
:100900002FB108952F933F934F935F936F93402F91
:10091000410FD0F04138C0F4312F36950023A1F0BB
:10092000CBDF212F217039F4013049F069915991C1
:1009300002501E5F07C059910A95139503C0699133
:100940000A95139507D0E8CF6F915F914F913F9132
:100950002F9108952F93C09A3F73306421E02FB9EF
:10096000CDDF3FB9CBDF6FB9C9DF5FB9C7DFC09853
:100970000000000000000000000000000000C09A1D
:100980000000000000000000000000000000B39B19
:10099000FECFC0982F91089555DFA1DBA8DB24DCA2
:1009A0002CDC06DE7BDB00270093B90100E000931E
:1009B000B4010093B5010093B10104D022D327D331
:1009C0000FDD0895002710E021E00093C20110938D
:1009D000C8011093C4011093C3011093C701209361
:1009E000C5012093C601ECE0FAE06627603241F0D1
:1009F0000591EF93FF937FDCFF91EF916395F6CF25
:100A00000CE01FEF78DC08E076DC089500090A0BA3
:100A1000060504000102000D0E1312111014151624
:100A2000181C1B1E2524202126190000BCDB09F4FC
:100A3000FDCFBDDB000F000F0024E0E5FAE0E00F82
:100A4000F01D0590159005911491F0010995EECFD8
:100A50000000000000000000000000000000000096
:100A60000000000000000000000000000000000086
:100A7000F705B801780500000E0700008C0500009E
:100A80000E0700000E070000BE06FF00BE060000B5
:100A9000EC050000DA0500006B061E036B061B0266
:100AA0006B061C016B061800DA0500000B0700003E
:100AB0000000000000000000000000000000000036
:100AC0008C06000011070000110700006B062405CA
:100AD0006B0620066B062107EC05FF00DA05000017
:100AE0000B070000DA0500006B062504000000007B
:100AF0000091B8010395093908F401C009E9009390
:100B0000B80101E012E0C8EBD1E0FCDE0091B401D5
:100B10000F3F09F065DC08950091B4010F3F59F1D2
:100B20000091B80100303FB731FD43C070DD0FEFD9
:100B30000093B4010091B8010A950093B80112E046
:100B400001E0C8EBD1E0DEDEA4DB0091B9010130A9
:100B500041F001E00093B9010027112721E0A3DB58
:100B60000FC002E00093B9010027112721E09BDBB1
:100B700022E099DB05C00091B5010F3FD1F0E4CF31
:100B800000E00093BB010093BC010093BD01009302
:100B9000BE0105E00093BF010093C00101E0009396
:100BA000BA0110E01093C10103E21FEFA4DB0ADFDA
:100BB00042D108958AD10FEF0093B50103E210915D
:100BC000C10199DB0AE197DB10951093C10102E2A4
:100BD00092DB07E290DB08951091C101011711F437
:100BE000E0D1DFD10FEF0093B501DBD10895EADE4C
:100BF0002091C701203029F01ED110E01093C701C9
:100C000069C00091BA01013041F01091C0011A95FC
:100C10001093C001103041F10CC01091BF011A9522
:100C20001093BF01103029F42091B901213009F44B
:100C30001BC022E0013041F00091C001112733DBDD
:100C400021E02093BA010BC00091BF0111272BDBDB
:100C50002091B901223019F422E02093BA01AADBD5
:100C600025E0C8DBE8D036C08091BB019091BC0183
:100C70006091BD017091BE018617970710F4862F11
:100C8000972F6091B6017091B7018617970710F4FE
:100C9000862F972F8093B6019093B701C6EBD1E0D2
:100CA00002E010E02FDE00E010E00093B4010093BA
:100CB000B5011093B901DDDC03E810E02AEF30E064
:100CC00096DD86DB29E096DB0FEFC3D00FEFC1D0B6
:100CD00087DB00C00895712F1FEF0DDB1091C2015B
:100CE00001E0703019F0000F7A95FBCF102B1093B4
:100CF000C201712F1F701F3029F409E11FEFFBDAC9
:100D00001093C401707F703F29F406E21FEFF3DAFD
:100D10001093C30111D1089500241091C1011F3F08
:100D200081F02091C60123953AE032173FB730FD9C
:100D30002AE02093C6012A95E2E7FDE0E20FF01DCC
:100D40000FC02091C50123953AE032173FB730FD1F
:100D50002AE02093C5012A95E8E6FDE0E20FF01DA8
:100D600004911FEFC8DA089500090A0B0605040074
:100D70000102000D0E13121110141516003029F186
:100D80007091C5011091C301103039F01093C70163
:100D900010E01093C30106E2AEDAE8E6FDE0662754
:100DA0006A3041F00591EF93FF93A5DAFF91EF913F
:100DB0006395F6CF703029F07F93BED07F917A95FE
:100DC000F9CF21E02093C50125C07091C601109193
:100DD000C401103039F01093C70110E01093C40122
:100DE00009E189DAE2E7FDE066276A3041F0059122
:100DF000EF93FF9380DAFF91EF916395F6CF703018
:100E000029F07F9399D07F917A95F9CF21E02093B3
:100E1000C60100C00895FEDA58D00895FBDA8CD0E0
:100E20000895BFD008950091B401003019F00FEF7C
:100E30000093C80108950FB6F8940093A70110938A
:100E4000A40108EE13E00093A6011093A5010FBEC4
:100E50000895CF93DF93C0E2DEE42197F1F70A957E
:100E6000D1F7DF91CF91089548EE53E08894C8F010
:100E7000652F642BB1F016D00A3088F464E061303D
:100E800020F0220F331F6A95FACF202B21018A010F
:100E90004AE050E007D0A8018201889401C008947C
:100EA000E6CF089560E133242224001F111F221C85
:100EB000331C2416350610F0241A350A6A95A9F752
:100EC000001F111F0095109508952091C801203032
:100ED00031F52091BA01213029F00091BD01109126
:100EE000BE0104C00091BB011091BC010A591A59FE
:100EF0000F5F0DF0066008F000661F4F0DF01660E2
:100F000008F0106606561656213029F00093BD01F0
:100F10001093BE0104C00093BB011093BC0121E0FB
:100F20000091BB011091BC01BED922E00091BD012E
:100F30001091BE01B8D908952091C801203021F543
:100F40002091BA01213029F00091BD011091BE011C
:100F500004C00091BB011091BC010A591A59005FED
:100F600008F000661F4F0DF0166008F01066065678
:100F70001656213081F20093BD011093BE0104C0CA
:100F80000093BB011093BC0121E00091BB011091C3
:100F9000BC0189D922E00091BD011091BE0183D925
:100FA00008952091C8012030F9F42091BA01213030
:100FB00029F00091BD011091BE0104C00091BB0158
:100FC0001091BC011A591F5F0DF0166008F01066F1
:100FD0001656213029F00093BD011093BE0104C0C4
:100FE0000093BB011093BC0121E00091BB01109163
:100FF000BC0159D922E00091BD011091BE0153D925
:10100000089502E010E0C6EBD1E02EDC089501E087
:0A10100012E0C8EBD1E028DC0895DF
:00000001FF
